:020000040800F2
:1000000000000820B5570008E1090008E3090008CE
:10001000E5090008E7090008E909000800000000F8
:10002000000000000000000000000000055800086B
:10003000EB090008000000003D030008E902000889
:10004000055800080558000805580008055800081C
:10005000055800080558000805580008055800080C
:1000600005580008055800080558000805580008FC
:1000700005580008055800080558000805580008EC
:1000800005580008055800080558000805580008DC
:1000900005580008055800080558000805580008CC
:1000A00005580008055800080558000805580008BC
:1000B00005580008055800080558000805580008AC
:1000C000055800080558000805580008055800089C
:1000D000055800080558000805580008055800088C
:1000E000055800080558000805580008055800087C
:1000F000055800080558000805580008055800086C
:10010000055800080558000805580008055800085B
:100110000558000805580008ED09000805580008B2
:10012000055800080558000805580008055800083B
:10013000055800080558000805580008055800082B
:10014000055800080558000805580008055800081B
:10015000055800080558000805580008055800080B
:1001600005580008055800080558000805580008FB
:100170000558000805580008055800080000000050
:1001800005580008055800080558000805580008DB
:1001900005580008055800080558000805580008CB
:1001A0000000000000000000055800080558000885
:1001B00005580008055800080558000805580008AB
:1001C0000558000805580008000000000558000800
:1001D000055800080558000805580008055800088B
:1001E000055800080558000805580008055800087B
:0801F0000000000005580008A2
:100200000348044B834202D0034B03B118477047A5
:100210001000002010000020000000000548064BE0
:100220001B1AD90F01EBA301491002D0034B03B1F4
:100230001847704710000020100000200000000048
:1002400010B5064C237843B9FFF7DAFF044B13B11E
:100250000448AFF300800123237010BD100000207C
:10026000000000000858000808B5044B1BB1044901
:100270000448AFF30080BDE80840CFE7000000006D
:1002800014000020085800080000000000000000D2
:1002900072B64FF0E0201949C0F8081D18481749F8
:1002A000096801601748016841F0010101604FF0E1
:1002B000E020154941614FF0070101614FF0000155
:1002C000C0F8181D4FF07F41C0F81C1D0F49C0F841
:1002D000201D7047FFF7FEBFFFF7FEBFFFF7FEBF11
:1002E00001B5BDE80140704701B500F071F8BDE807
:1002F00001407047FFF7FEBFFFF7FEBF0000000898
:1003000024120020001000E07FF520000000FF40D4
:100310004FF000002A4A1060EFF3148020F0040030
:1003200080F3148862B64FF080504FF0E021C1F89E
:10033000040DBFF34F8FBFF36F8FFEE72148224AB2
:100340004FF00003016891B10360EFF3098C2CE9D1
:10035000F00F1EF0100F01D12CED108A1B4C4CF841
:1003600004ED2568C1F808C00DB18D61236072B637
:100370001168B1B1016062B64F68144C8D6907F124
:1003800001074F602560D1F808C05CF804EB1EF04F
:10039000100F01D1BCEC108ABCE8F00F8CF3098877
:1003A000704772B61168016009B962B6F9E74FF09B
:1003B00000674FF0E028C8F8047D62B6DCE77047BC
:1003C00088110020201200201C120020281200207A
:1003D0002249086800F101000860214B1A683AB10F
:1003E000A2F101021A601AB91E4B4FF00100186009
:1003F0001D490868026822B11C4B4FF001021A60C7
:1004000008E000F104001A4B1A68904201D1194B20
:1004100018680860134B1A6812B914490868D0B1FB
:100420002DE901401149086808B104F08FF80D4B1F
:100430001A6872B103F072FF0F48016849B90F489A
:1004400001680F4A13680F484FF08052994200D05C
:100450000260BDE80140BFF34F8F7047881700204E
:100460002812002084170020F8160020F41600201F
:10047000FC16002000170020881100202012002008
:100480001C12002004ED00E000000000000000004D
:10049000026922F00702A2F144026FF00203136026
:1004A0004FF0000353609360D36013615361936115
:1004B000D361136253629362D362136353634FF049
:1004C000FF339363D1634FF080731364826070478E
:1004D00070B50F4B0F4DAB42A3EB050607D0B6101E
:1004E000002455F8043B01349847A642F9D805F09A
:1004F0008BF9094D094B5E1BAB424FEAA60606D0AD
:10050000002455F8043B01349847A642F9D870BD41
:100510009058000890580008905800089458000817
:10052000830730B547D0541E002A3ED0CAB20346D6
:1005300001E0013C39D303F8012B9D07F9D1032CCD
:100540002CD9CDB205EB05250F2C05EB054535D98A
:10055000A4F1100222F00F0C03F1100EE6444FEA52
:10056000121C1A46C2E90055C2E902551032724502
:10057000F8D10CF1010214F00C0F03EB021204F09D
:100580000F0C13D0ACF1040323F003030433134422
:1005900042F8045B9342FBD10CF003042CB1C9B2C6
:1005A0001C4403F8011BA342FBD130BD6446134633
:1005B000002CF4D1F9E703461446C0E71A46A446D6
:1005C000E0E700BF53B94AB9002908BF00281CBFA3
:1005D0004FF0FF314FF0FF3000F06AB9ADF1080C79
:1005E0006DE904CE00F006F8DDF804E0DDE9022351
:1005F00004B070472DE9F047089D0E4604460F46AB
:10060000002B4AD194468C45B2FA82F260D942B1AD
:10061000C2F12003974020FA03F30CFA02FC1F43B7
:1006200094404FEA1C4E1FFA8CF6B7FBFEF1230CE8
:100630000EFB117743EA074301FB06F098420AD903
:100640001CEB030301F1FF3780F01581984240F263
:100650001281023963441B1AA4B2B3FBFEF00EFBF5
:10066000103344EA034400FB06F6A6420AD91CEB09
:10067000040400F1FF3380F00081A64240F2FD80C7
:100680006444023840EA0140A41B00211DB1D4405B
:100690000023C5E90043BDE8F0878B4205D90DB1C1
:1006A000C5E9000100210846F5E7B3FA83F1002906
:1006B00046D1B34202D3824200F2F580841A66EB3F
:1006C000030201201746002DE5D0C5E90047E2E707
:1006D000002A40F09380A1EB0C034FEA1C471FFA5D
:1006E0008CFE0121B3FBF7F607FB1630230C43EA1F
:1006F00000430EFB06F0984208D91CEB030306F1F9
:10070000FF3802D2984200F2D08046461B1AA4B2AB
:10071000B3FBF7F007FB103344EA03440EFB00FE83
:10072000A64508D91CEB040400F1FF3302D2A6450C
:1007300000F2B6801846A4EB0E0440EA0640A5E796
:10074000C1F120078B4022FA07FC4CEA030C06FAA1
:1007500001FE20FA07F426FA07F344EA0E0400FA31
:1007600001F84FEA1C404FEA1449B3FBF0FE1FFAB0
:100770008CF600FB1E3349EA03430EFB06F999454C
:1007800002FA01F20BD91CEB03030EF1FF3A80F0E1
:100790008580994540F28280AEF1020E6344A3EB5E
:1007A0000909A4B2B9FBF0F300FB139944EA094428
:1007B00003FB06F6A64208D91CEB040403F1FF3044
:1007C00068D2A64266D9023B644443EA0E40A41BA9
:1007D000A0FB02E6B4427346B14652D34FD05DB19E
:1007E000B8EB030264EB090404FA07F722FA01F3F9
:1007F0001F43CC40C5E9007400214CE7C2F1200141
:1008000020FA01F30CFA02FC26FA01F19640334378
:100810004FEA1C471FFA8CFEB1FBF7F007FB1016DE
:10082000190C41EA064100FB0EF68E4204FA02F46E
:1008300008D91CEB010100F1FF382DD28E422BD9D3
:1008400002386144891B9BB2B1FBF7F607FB161116
:1008500043EA014306FB0EF1994208D91CEB03035E
:1008600006F1FF3814D2994212D9023E63445B1A52
:1008700046EA004136E73946EDE6184602E7F0451C
:10088000ADD2BEEB020366EB0C060138B146A6E71B
:100890004646ECE7034698E74046D3E7D6467EE770
:1008A0006444023847E708460DE7023E63442DE7FB
:1008B000704700BF08B50268034B9A4200D008BDDC
:1008C00001F0AEFBFBE700BF0010004072B6FEE790
:1008D00000B595B03422002107A8FFF721FE0023C0
:1008E00002930393049305930693284B1A6C42F0EA
:1008F00080521A641B6C03F080530093009B244BBE
:100900001A6842F440421A601B6803F440430193A2
:10091000019B032307934FF48033089301230A9329
:1009200010230B9302230D934FF480020E920C229E
:100930000F92D822109211930A221292139307A8B1
:1009400000F030FAD8B901F0BFFAD0B90F23029302
:1009500002230393002304934FF4A05305934FF411
:1009600080530693072102A800F0DEFC58B900224C
:100970001146104600F038FC15B05DF804FBFFF797
:10098000A5FFFFF7A3FFFFF7A1FF00BF003802405C
:100990000070004008B501F037FBFFF799FF03F046
:1009A000C7FF04F0B9F804F0F1F804F08DF904F091
:1009B0005DFA04F075FA04F045FB04F0BFFB04F0A7
:1009C0000FFC04F037FD04F0D1FD04F079FE04F0D3
:1009D0008FFE04F013FE04F0A5F902F057FFFEE7C6
:1009E000FEE7FEE7FEE7FEE7FEE7704708B50248D0
:1009F00002F014F808BD00BF3000002082B00A4B9E
:100A00001A6C42F080521A641A6C02F08052009202
:100A1000009A5A6C42F480425A645B6C03F480433F
:100A20000193019B02B07047003802404A4B5A685C
:100A300022F440325A605A6841680A435A60026898
:100A4000536823F48073536002685368016943EA72
:100A5000012353600268536823F0407353600268B7
:100A6000536881680B4353600268936823F4006302
:100A7000936002689368C1680B439360826A374B46
:100A80009A4257D00268936823F0706393600268BB
:100A90009368816A0B4393600268936823F0405324
:100AA000936002689368C16A0B439360026893681D
:100AB00023F00203936002689368816943EA41036B
:100AC000936090F82030002B3FD00268536843F4C5
:100AD000006353600268536823F460435360016805
:100AE0004B68426A013A43EA42334B600268D36A78
:100AF00023F47003D3620168CB6AC269013A43EA06
:100B00000253CB620268936823F400739360026817
:100B1000936890F8301043EA412393600268936829
:100B200023F48063936002689368416943EA8123F8
:100B3000936070470268936823F070639360026863
:100B4000936823F040539360B0E70268536823F43E
:100B500000635360CAE700BF002301400100000F9B
:100B600028B310B50446036C43B1236C13F0100F87
:100B70000BD00120002384F83C3010BD04F03EF877
:100B80000023636484F83C30EFE7226C094B134088
:100B900043F0020323642046FFF748FF002060640F
:100BA000236C23F0030343F001032364E2E70120F5
:100BB000704700BFFDEEFFFF30B482B0002201920B
:100BC00090F83C20012A00F0E0800346012280F8E2
:100BD0003C200A68B2F1004F18BF092A22D90468E4
:100BE000E06892B202EB42021E3A4FF0070C0CFA98
:100BF00002F220EA0202E2600A68654882420AD0F4
:100C00001D68E8688C6892B202EB42021E3A94407A
:100C10002043E86020E01868C2688C6842EA0462F9
:100C2000C26019E00468206992B202EB420202F04D
:100C30001F024FF0070C0CFA02F220EA02022261B6
:100C40001C6820690A8802EB420202F01F028D68CC
:100C500005FA02F2024322614A68062A29D81C6872
:100C6000606B02EB8202053A4FF01F0C0CFA02F2A5
:100C700020EA020262631C68606B4A6802EB82022F
:100C8000053AB1F800C00CFA02F202436263186838
:100C9000404A90423DD018683E4A904243D018687E
:100CA0003C4A90424CD0002083F83C0002B030BC5B
:100CB00070470C2A16D81D68286B02EB8202233A73
:100CC0001F2404FA02F220EA02022A631D68286B3C
:100CD0004A6802EB8202233A0C8804FA02F20243C9
:100CE0002A63D4E71D68E86A02EB8202413A1F24B6
:100CF00004FA02F220EA0202EA621D68E86A4A681F
:100D000002EB8202413A0C8804FA02F20243EA62E0
:100D1000BDE70A68B2F1004FBDD11F48426822F416
:100D200040024260B7E70A68122AB8D11A4A5068EE
:100D300020F400005060506840F480005060AEE73E
:100D40000A681348112A18BF8242ACD1124A50686F
:100D500020F480005060506840F400005060096842
:100D60000B4A91429FD10D4A12680D49A1FB021214
:100D7000920C02EB82025200019202E0019A013AC7
:100D80000192019A002AF9D18DE702208EE700BF77
:100D90001200001000200140002301400800002044
:100DA00083DE1B43002800F0068270B582B0044643
:100DB000036813F0010F29D0954B9B6803F00C03D7
:100DC000042B1AD0924B9B6803F00C03082B0FD016
:100DD0006368B3F5803F40D0002B54D18C4B1A6828
:100DE00022F480321A601A6822F480221A6039E0F4
:100DF000874B5B6813F4800FEAD0854B1B6813F4B4
:100E0000003F03D06368002B00F0D781236813F004
:100E1000020F74D07E4B9B6813F00C0F5ED07C4B9E
:100E20009B6803F00C03082B53D0E368002B00F001
:100E30008980774A136843F00103136001F0FCF8DE
:100E40000546734B1B6813F0020F72D101F0F4F8E2
:100E5000401B0228F5D90320B4E16D4A136843F41E
:100E60008033136063682BB301F0E6F80546684BE6
:100E70001B6813F4003FC9D101F0DEF8401B642861
:100E8000F5D903209EE1B3F5A02F09D0604B1A6875
:100E900022F480321A601A6822F480221A60E1E794
:100EA0005B4B1A6842F480221A601A6842F480325E
:100EB0001A60D7E701F0C0F80546554B1B6813F4DC
:100EC000003FA3D001F0B8F8401B6428F5D90320F7
:100ED00078E14F4B5B6813F4800FA6D14C4B1B6835
:100EE00013F0020F03D0E368012B40F06881484AF9
:100EF000136823F0F803216943EAC10313602368F0
:100F000013F0080F46D0636983B3414A536F43F02F
:100F10000103536701F090F805463D4B5B6F13F0FA
:100F2000020F37D101F088F8401B0228F5D90320C1
:100F300048E1374A136823F0F803216943EAC10303
:100F40001360DCE7324A136823F00103136001F0F9
:100F500073F805462E4B1B6813F0020FCFD001F03B
:100F60006BF8401B0228F5D903202BE1284A536F68
:100F700023F00103536701F05FF80546244B5B6FD4
:100F800013F0020F06D001F057F8401B0228F5D9E4
:100F9000032017E1236813F0040F7DD01C4B1B6C5A
:100FA00013F0805F1ED11A4B1A6C42F080521A6403
:100FB0001B6C03F080530193019B0125154B1B68AB
:100FC00013F4807F10D0A368012B25D0002B3BD1D8
:100FD0000F4B1A6F22F001021A671A6F22F00402F7
:100FE0001A671EE00025E9E70A4A136843F4807394
:100FF000136001F021F80646064B1B6813F4807F4E
:10100000E1D101F019F8801B6428F5D90320D9E05B
:101010000038024000700040724A136F43F0010331
:101020001367A36833B301F007F806466D4B1B6FD7
:1010300013F0020F2FD100F0FFFF801B41F2883325
:101040009842F3D90320BDE0052B09D0654B1A6FF8
:1010500022F001021A671A6F22F004021A67E0E711
:10106000604B1A6F42F004021A671A6F42F00102D5
:101070001A67D6E700F0E0FF06465A4B1B6F13F0E5
:10108000020F08D000F0D8FF801B41F2883398424D
:10109000F3D9032096E0FDB9A369002B00F09180FD
:1010A000504A926802F00C02082A59D0022B19D03B
:1010B0004C4A136823F08073136000F0BDFF0446B0
:1010C000484B1B6813F0007F48D000F0B5FF001BB1
:1010D0000228F5D9032075E0424A136C23F08053AF
:1010E0001364D9E73F4A136823F08073136000F05C
:1010F000A3FF05463B4B1B6813F0007F06D000F0B2
:101100009BFF401B0228F5D903205BE0E369226ABC
:101110001343626A43EA8213A26A5208013A43EA1D
:101120000243E26A43EA0263226B43EA02732D4AF6
:101130005360136843F08073136000F07DFF044632
:10114000284B1B6813F0007F06D100F075FF001BD1
:101150000228F5D9032035E0002033E0002031E0FB
:10116000204A5268012B2FD002F48003E1698B42A0
:101170002CD102F03F03216A8B4229D1616A47F6E4
:10118000C0731340B3EB811F24D102F44031A36A32
:101190005B08013BB1EB034F1ED102F07063E16AC3
:1011A000B3EB016F1AD102F0E042236BB2EB037F85
:1011B00016D1002006E001207047012002E0012046
:1011C00000E0002002B070BD0120FBE70120F9E73C
:1011D0000120F7E70120F5E70120F3E70120F1E71F
:1011E0000120EFE70038024070B588B00C46154684
:1011F000F8B9204E336B43F001033363336B03F0D4
:1012000001030193019B4FF4807303930223049322
:101210000323069300230593079303A9164800F0C0
:101220004BFDB36823F0EC6325431D43B56008B064
:1012300070BD104E336B43F004033363336B03F024
:1012400004030293029B4FF400730393022304935D
:101250000323069300230593079303A9074800F08F
:101260002BFDB36823F0784344EAC5041C43B46003
:10127000DDE700BF003802400000024000080240E5
:1012800008B5264B9B6803F00C03042B41D0082BB8
:1012900041D1224B5A6802F03F025B6813F4800F81
:1012A00012D01E4B5968C1F388111D480023A1FBC1
:1012B0000001FFF787F9194B5B68C3F30143013362
:1012C0005B00B0FBF3F008BD144B5868C0F3881006
:1012D0004FEA401CBCEB000C6EEB0E0E4FEA8E1377
:1012E00043EA9C634FEA8C11B1EB0C0163EB0E03F4
:1012F000DB0043EA5173C90011EB000C43F100031A
:10130000990200234FEA8C2041EA9C51FFF75AF9D9
:10131000D1E70348D7E70348D5E700BF00380240CC
:1013200000366E010024F400002800F0A08070B5A3
:101330000D460446524B1B6803F00F038B420BD241
:101340004F4A136823F00F030B431360136803F035
:101350000F038B4240F08D80236813F0020F17D0EB
:1013600013F0040F04D0474A936843F4E0539360AA
:10137000236813F0080F04D0424A936843F4604393
:101380009360404A936823F0F003A1680B43936095
:10139000236813F0010F31D06368012B20D0022B9A
:1013A00025D0384A126812F0020F64D035498A6895
:1013B00022F0030213438B6000F03EFE0646314BE1
:1013C0009B6803F00C036268B3EB820F16D000F049
:1013D00033FE801B41F288339842F0D9032045E068
:1013E000284A126812F4003FE0D101203EE0254A6D
:1013F000126812F0007FD9D1012037E0204B1B6822
:1014000003F00F03AB420AD91D4A136823F00F0300
:101410002B431360136803F00F03AB422DD12368F5
:1014200013F0040F06D0174A936823F4E053E168E1
:101430000B439360236813F0080F07D0114A936899
:1014400023F46043216943EAC1039360FFF718FF67
:101450000C4B9B68C3F303130B4AD35CD8400B4B74
:1014600018600B4B186802F015FA002070BD0120BF
:1014700070470120FAE70120F8E70120F6E700BFF6
:10148000003C0240003802402858000808000020B4
:1014900004000020014B1868704700BF08000020BE
:1014A00008B5FFF7F7FF044B9B68C3F38223034A99
:1014B000D35CD84008BD00BF003802402058000867
:1014C00008B5FFF7E7FF044B9B68C3F34233034AB9
:1014D000D35CD84008BD00BF003802402058000847
:1014E0000F2303600B4B9A6802F0030242609A6874
:1014F00002F0F00282609A6802F4E052C2609B68D7
:10150000DB0803F4E0530361034B1B6803F00F0394
:101510000B60704700380240003C0240F0B583B0D9
:101520000446066816F001060DD0B64B9A6822F400
:1015300000029A609A68416B0A439A60436B002BE1
:1015400000F062810026256815F4002511D0AD4A0F
:10155000D2F88C3023F44013E16B0B43C2F88C308B
:10156000E36BB3F5801F00F05181002B00F0508138
:101570000025236813F4801F0FD0A24AD2F88C30C4
:1015800023F44003216C0B43C2F88C30236CB3F579
:10159000800F00F03F8103B90125236813F0807F9D
:1015A00000D0012613F0200F40F03681236813F09D
:1015B000100F0CD0934BD3F88C2022F08072C3F81C
:1015C0008C20D3F88C20A16B0A43C3F88C202368AD
:1015D00013F4804F08D08B4AD2F8903023F4403374
:1015E000616E0B43C2F89030236813F4004F08D0AB
:1015F000844AD2F8903023F44023A16E0B43C2F802
:101600009030236813F4803F08D07E4AD2F890309F
:1016100023F44013E16E0B43C2F89030236813F4B7
:10162000003F08D0774AD2F8903023F44003216F6E
:101630000B43C2F89030236813F0400F08D0714A72
:10164000D2F8903023F00303616C0B43C2F8903062
:10165000236813F0800F08D06A4AD2F8903023F044
:101660000C03A16C0B43C2F89030236813F4807F05
:1016700008D0644AD2F8903023F03003E16C0B4379
:10168000C2F89030236813F4007F08D05D4AD2F886
:10169000903023F0C003216D0B43C2F890302368D3
:1016A00013F4806F08D0574AD2F8903023F4407377
:1016B000616D0B43C2F89030236813F4006F08D0BB
:1016C000504AD2F8903023F44063A16D0B43C2F826
:1016D0009030236813F4805F08D04A4AD2F89030E3
:1016E00023F44053E16D0B43C2F89030236813F4A8
:1016F000005F08D0434AD2F8903023F44043216E73
:101700000B43C2F89030236813F4800F08D03D4A91
:10171000D2F8903023F08063A16F0B43C2F8903071
:10172000236813F4001F0DD0364AD2F8903023F00E
:101730000063E16F0B43C2F89030E36FB3F1006FC9
:1017400000F0D080236813F4802F08D02D4AD2F8FF
:10175000903023F04073616F0B43C2F890302368E0
:1017600013F4000F09D0274AD2F8903023F08053A9
:10177000D4F880100B43C2F89030236813F0806FC8
:1017800009D0204AD2F8903023F00053D4F88410C6
:101790000B43C2F89030236813F0006F09D0194A48
:1017A000D2F88C3023F00073D4F888100B43C2F8C1
:1017B0008C30236813F0805F09D0124AD2F88C3045
:1017C00023F08063D4F88C100B43C2F88C3026B918
:1017D000236813F0007F00F005810A4A136823F0A4
:1017E0008063136000F028FC0646064B1B6813F06C
:1017F000006F79D000F020FC801B6428F5D903200D
:10180000F3E000BF0038024001269CE60126ACE66A
:101810000125AEE60126BEE6AB4B1A6C42F08052C3
:101820001A641B6C03F080530193019BA74A136851
:1018300043F48073136000F0FFFB0746A34B1B6863
:1018400013F4807F06D100F0F7FBC01B6428F5D9A4
:101850000320CAE09C4B1B6F13F4407315D0226B1E
:1018600002F440729A4210D0974B1A6F22F44072E1
:10187000196F41F480311967196F21F480311967AC
:101880001A671B6F13F0010F12D1236B03F4407220
:10189000B2F5407F1DD08C4A936823F4F81393600F
:1018A00089490B6F226BC2F30B0213430B677DE672
:1018B00000F0C2FB0746844B1B6F13F0020FE4D10C
:1018C00000F0BAFBC01B41F288339842F3D90320E1
:1018D0008BE07D48826822F4F8127D4919400A4362
:1018E0008260DDE701252DE7236813F0010F13D097
:1018F000636B8BB9744AD2F88430D2F88410606874
:1019000003F4403343EA801301F070610B43A16894
:1019100043EA0173C2F88430236813F4002F03D024
:10192000E26BB2F5801F06D013F4801F1ED0236C2B
:10193000B3F5800F1AD1644AD2F88430D2F88410FB
:10194000606803F4403343EA8013E06843EA0063CD
:1019500001F0E0410B43C2F88430D2F88C3023F020
:101960001F03616A01390B43C2F88C30236813F0FE
:10197000807F11D0544AD2F88400D2F8841066686F
:1019800023691B0443EA861300F07060034301F0EF
:10199000E0410B43C2F88430236813F0007F0DD080
:1019A000626823691B0443EA8213E26843EA026324
:1019B000A26843EA0273444AC2F88430424A136878
:1019C00043F08063136000F037FB06463E4B1B6814
:1019D00013F0006F06D100F02FFB801B6428F5D9AF
:1019E000032002E0012D02D0002003B0F0BD364AF2
:1019F000136823F08053136000F01EFB0546324B42
:101A00001B6813F0005F06D000F016FB401B642833
:101A1000F5D90320E9E7236813F4002F01D0E26B26
:101A200022B113F4801F1DD0236CDBB9264AD2F8F3
:101A30008830D2F88810606903F4403343EA801399
:101A4000A06943EA006301F0E0410B43C2F888302B
:101A5000D2F88C3023F4F853A16A013943EA012308
:101A6000C2F88C30236813F4001F03D0E36FB3F186
:101A7000006F13D0144A136843F08053136000F0D2
:101A8000DBFA0446104B1B6813F0005F19D100F01D
:101A9000D3FA001B6428F5D90320A6E70A4AD2F836
:101AA0008800D2F888106569236A1B0443EA85130D
:101AB00000F07060034301F0E0410B43C2F888304E
:101AC000D8E7002091E700BF0038024000700040D6
:101AD000FFFCFF0F0346B0F5002F04D00020B3F544
:101AE000801F71D07047704AD2F88C2002F44012E7
:101AF000B2F5001F64D026D88AB3B2F5801F20D17A
:101B0000694A526812F4800F52D1674A516801F055
:101B10003F01664AB2FBF1FC634AD2F88410C1F37C
:101B20000361D2F88400C0F388100CFB00F0B0FB16
:101B3000F1F0D2F88C2002F01F020132B0FBF2F07B
:101B4000CDE70020CBE7B2F5401F06D1564A5268D8
:101B500012F4800F36D15548C1E70020BFE7524A42
:101B6000526812F4800F1BD14F4A516801F03F01B7
:101B70004E4AB2FBF1FC4C4AD2F88810C1F3036123
:101B8000D2F88800C0F388100CFB00F0B0FBF1F035
:101B9000D2F88C20C2F304220132B0FBF2F09EE7AF
:101BA000414A516801F03F01414AB2FBF1FCE2E7D2
:101BB0003D4A516801F03F013D4AB2FBF1FCABE701
:101BC0003C488CE73A488AE7374BD3F88C3003F42B
:101BD0004003B3F5000F62D025D87BB3B3F5800F77
:101BE00020D1314B5B6813F4800F50D12E4B5B68D2
:101BF00003F03F032D49B1FBF3F12B4BD3F88420C5
:101C0000C2F30362D3F88400C0F3881001FB00F034
:101C1000B0FBF2F0D3F88C3003F01F030133B0FBBC
:101C2000F3F070477047B3F5400F06D11E4B5B6869
:101C300013F4800F35D11D48704770471A4B5B680D
:101C400013F4800F1BD1184B5B6803F03F03174957
:101C5000B1FBF3F1144BD3F88820C2F30362D3F83D
:101C60008800C0F3881001FB00F0B0FBF2F0D3F85D
:101C70008C30C3F304230133B0FBF3F070470A4BFD
:101C80005B6803F03F030A49B1FBF3F1E2E7064B5F
:101C90005B6803F03F030649B1FBF3F1ADE705488C
:101CA000704703481EE700BF003802400024F400DC
:101CB00000366E010000770100230F2B00F2F48044
:101CC00070B582B066E085684FEA430E032404FADB
:101CD0000EF425EA0405CC6804FA0EF42C43846063
:101CE000446824EA02044A68C2F300129A4022437C
:101CF00042605DE0DC08083450F8242003F007055A
:101D0000AD004FF00F0E0EFA05FE22EA0E0E0A6924
:101D1000AA4042EA0E0240F824205DE0092200E0D9
:101D2000002202FA0EF22A430234604D45F82420C4
:101D30005F4A94686FEA0C0224EA0C054E6816F4B8
:101D4000801F01D04CEA0405594CA560E46802EA02
:101D500004054E6816F4001F01D04CEA0405544CEB
:101D6000E560646802EA04054E6816F4003F01D09D
:101D70004CEA04054E4C6560246822404D6815F419
:101D8000803F01D04CEA0402494C226001330F2B02
:101D900000F2888001229A400C6804EA020C32EAC0
:101DA0000404F3D14C6804F00304013C012C8AD9EB
:101DB0004A6802F00302032A09D0C4685D000322C6
:101DC000AA4024EA02048A68AA402243C2604A6800
:101DD00002F00302022A8DD004684FEA430E032268
:101DE00002FA0EF224EA02044A6802F0030202FA3E
:101DF0000EF2224302604A6812F4403FC6D02D4AD8
:101E0000546C44F480445464526C02F48042019255
:101E1000019A9C08A51C254A52F8255003F0030E90
:101E20004FEA8E0E0F2202FA0EF225EA0205224A2E
:101E300090423FF475AF02F58062904222D002F5E5
:101E40008062904220D002F5806290421ED002F55E
:101E5000806290421CD002F5806290421AD002F556
:101E60008062904218D002F58062904216D002F54E
:101E70008062904214D002F5806290423FF44EAFEF
:101E80000A224EE701224CE702224AE7032248E7F2
:101E9000042246E7052244E7062242E7072240E7FC
:101EA00008223EE702B070BD704700BF0038014015
:101EB000003C014000380240000002400AB181614C
:101EC000704709048161704710B582B01B4B1A6CD2
:101ED00042F080521A641B6C03F080530193019B03
:101EE000174A136843F48033136000F0A5F80446E2
:101EF000134B5B6813F4803F08D100F09DF8001B82
:101F0000B0F57A7FF4D9032002B010BD0C4A1368F3
:101F100043F40033136000F08FF80446084B5B680D
:101F200013F4003F07D100F087F8001BB0F57A7F6B
:101F3000F4D90320E8E70020E6E700BF00380240BC
:101F400000700040002804DB0901C9B2044B195499
:101F5000704700F00F000901C9B2024B19547047D5
:101F600000E400E014ED00E000B500F00700C0F16F
:101F7000070CBCF1040F28BF4FF0040C031D062B07
:101F80000FD9C31E4FF0FF3E0EFA0CF021EA0001FC
:101F900099400EFA03FE22EA0E0241EA02005DF8C1
:101FA00004FB0023EEE700000649CB6823F4E0635E
:101FB0001B041B0C000200F4E0600343024A1A43B6
:101FC000CA60704700ED00E00000FA0510B5044655
:101FD000054BD868C0F30220FFF7C6FF0146204634
:101FE000FFF7B0FF10BD00BF00ED00E0002807DBE9
:101FF00000F01F02400901239340024A42F82030BA
:10200000704700BF00E100E008B50320FFF7CCFFF8
:102010000F2001F03FFCFEF7F1FC002008BD00009E
:10202000034A1168034B1B780B441360704700BFD1
:102030002C00002000000020014B1868704700BFF2
:102040002C00002038B50446FFF7F6FF0546B4F132
:10205000FF3F02D0044B1B781C44FFF7EDFF401BF1
:10206000A042FAD338BD00BF0000002000285DD098
:1020700010B5044690F84130002B46D0242384F854
:1020800041302268136823F00103136063682268FB
:1020900023F0706313612268936823F40043936014
:1020A000E368012B36D0A368226843F404439360AD
:1020B000E368022B34D02268536823F40063536032
:1020C000226851681A4B0B4353602268D36823F48B
:1020D0000043D360236962691343A169226843EA1C
:1020E0000123D360E369216A22680B4313602268ED
:1020F000136843F00103136000206064202384F818
:102100004130206384F8420010BD80F8403002F076
:1021100035FEB3E7A368226843F400439360C7E742
:102120002268536843F400635360C9E70120704795
:1021300000800002034690F84120D2B2202A23D129
:1021400090F84020012A21D0012280F8402024224A
:1021500080F841200068026822F0010202601868DD
:10216000026822F48052026018680268114301601C
:1021700019680A6842F001020A60202283F84120AF
:10218000002083F84000704702207047022070470B
:10219000034690F84120D2B2202A21D190F8402065
:1021A000012A1FD0012280F84020242280F84120FB
:1021B0000068026822F0010202601868026822F4D6
:1021C000706242EA0122026019680A6842F0010264
:1021D0000A60202283F84120002083F840007047E5
:1021E0000220704702207047C369012B23D0022BC5
:1021F00023D1134B5B6813F4800F14D1104B5B6831
:1022000003F03F030F4AB2FBF3F20D49D1F88430DB
:10221000C3F30273D1F88400C0F3881002FB00F00E
:10222000B0FBF3F07047064B5B6803F03F03064AD0
:10223000B2FBF3F2E9E7054870470020704700BFA2
:10224000003802400024F40000366E0100007701DF
:10225000002800F0878038B5044690F83930002B0C
:1022600055D0022284F839202168C8693E4B0340CA
:10227000CB6123681A62636993426BD0E368002BD9
:102280004AD11025A368202B00D86D00E369012BEB
:1022900044D136482369B3F5007F43D0B0FBF5F055
:1022A00000EB800043006269B3FBF2F30533304A70
:1022B000A2FB0323C3F3C002C2EBD3035B081102EA
:1022C0009A1EFD2A48D822690A4321681A430A62E5
:1022D0002168CA69244B13406268A0680243E06821
:1022E0000243A0690243134343F40063CB61A36834
:1022F000B02B18BF302B04D12268D36943F480532C
:10230000D3610020E063012384F8393038BD80F8C0
:10231000383002F0DFFDA4E72025B3E72046FFF7C1
:1023200063FFB7E7E36853B1AD00B0FBF5F000EB36
:10233000800043006269B3FBF2F30533B7E7ED00B9
:10234000B0FBF5F000EB800043006269B3FBF2F3F1
:102350000533ACE70021B3E7E36B43F01003E3631D
:102360000120D3E70120704740F0FFFF0000770114
:10237000CDCCCCCC2DE9F84305460F461646994600
:10238000DDF820802C68A4683C4214BF4FF0010C9B
:102390004FF0000CB44514D0B8F1FF3FF2D0FFF776
:1023A0004BFEA0EB0900404502D8B8F1000FE9D17F
:1023B000042385F841306B6C43F001036B6401200A
:1023C00000E00020BDE8F8838164704770B582B0FA
:1023D0000446FFF731FE002C4AD0064694F84130FF
:1023E000002B3AD025682A6822F4F852A1680139F6
:1023F00042EA01222A60A36C009333460022202186
:102400002046FFF7B7FF18BB21680B68194A1A402E
:102410006568E36843EA0563E5692B43256A2B4356
:102420001A430A6021684A68134B134025696269A0
:1024300042EA0542A5692A4313434B6022681368A8
:1024400043F00103136000236364012384F84130E7
:10245000002384F8403002B070BD84F8403020463C
:1024600002F00AFE41F288312046FFF7ADFFB9E7DE
:102470000120F0E72FFFFF00FEF8E0FF0E4B1B6886
:102480000E4AA2FB03231B0B9B0001680A6822F47F
:1024900080320A601A46013B32B10268126812F4B7
:1024A000803FF7D100207047D0F8803043F04003E0
:1024B000C0F8803003207047080000201BECCB954B
:1024C000002800F0EB8038B5044690F87D3063B109
:1024D000022384F87D302046FFF7D0FFE368012B0C
:1024E00008D0022B13D1202205E080F87C3002F0C6
:1024F000C5FEEDE71022A368022B00F0AC80032B91
:1025000007D0012B40F0AA804FF4806505E000223F
:10251000F1E742F001024FF4006523686048614929
:102520008B4218BF834240F09B805F4BC3F800286A
:10253000E3693BB323685A495A4A934218BF8B4216
:1025400000F09280002023685849594A934218BFEE
:102550008B4200F08E8000EB80004000E3695B025C
:10256000B0FBF3F0534BA3FB0023DB08236203EB28
:102570008302A0EB4200082801D901332362236BB8
:10258000042B7BD06368022B18BF002B7DD1E36B3B
:10259000012B77D04FF4007C22681168464B0B402A
:1025A0001360226811686368206B0343606B034308
:1025B000A06B034343EA0C032B43606A0343206987
:1025C000034360690343206A43EA00530B431360EB
:1025D00022685168394B0B40536021684A68A369EF
:1025E000A06A0343E06A034313434B602268916887
:1025F000334B0B40936020688268236C013B216D54
:102600000B43A16C0B43E16C0B43616C013943EA52
:102610000123134383602268D36823F47D6323F08E
:102620000F031B041B0CD3602068C268636DA16D8F
:102630000B43216E43EA0143E16D013943EA012373
:102640001343C3600020C4F88000012384F87D3068
:1026500084F87C0038BD4FF400655EE700255CE738
:10266000114BC3F8002C63E74FF40020FFF732FA58
:1026700069E74FF48010FFF72DFA6CE7236A5B08D7
:1026800023627FE74FF0000C86E7E36B012B02D05B
:102690004FF0000C80E74FF4007C7DE7012070478D
:1026A000045801402458014000500140045C01409E
:1026B000245C0140CDCCCCCC10C005FFF01FFFFF47
:1026C0000080F8FF00286FD010B50446436A33B984
:1026D0004368B3F5827F05D00023C36102E0002385
:1026E000036143610023A36294F85D30002B52D054
:1026F000022384F85D302268136823F040031360DE
:10270000E368B3F5E06F4CD90022B3F5706F18BFE2
:10271000B3F5E06F01D00023A362636803F4827312
:10272000A16801F404410B43216901F002010B434C
:10273000616901F001010B43A16901F400710B43D0
:10274000E16901F038010B43216A01F080010B437C
:10275000A16A01F4005120680B430360638B03F00E
:102760000403616A01F010010B43616B01F0080181
:102770000B43E16801F470610B43216813434B6024
:102780002268D36923F40063D3610020206601230B
:1027900084F85D3010BD84F85C30204602F070FE95
:1027A000A6E74FF48052B0E70120704770B4046A86
:1027B000036A23F00103036242688569124B2B40D0
:1027C0000D681D4324F002048B6823430F4C104E08
:1027D000B04218BFA0420CBF0124002405D123F051
:1027E0000803CE681E4326F004032CB122F4407285
:1027F0004C6914438A692243426085614A68426396
:10280000036270BC704700BF8CFFFEFF00000140F8
:102810000004014070B4036A026A22F4807202620A
:102820004268C569144C2C400E68264323F400739B
:102830008C6843EA0423114C114DA84218BFA042F2
:102840000CBF0124002406D123F40063CD6843EAC1
:10285000052323F480633CB122F440524C6942EAE0
:1028600004128C6942EA04124260C6614A68C2637B
:10287000036270BC704700BF8CFFFEFF0000014088
:102880000004014070B4036A026A22F480520262BA
:102890004468C5690D4A2A400D6842EA052223F4BE
:1028A00000538D6843EA0533094E0A4DA84218BF0C
:1028B000B04204D124F480444D6944EA8514446054
:1028C000C2614A680264036270BC7047FF8CFFFEFD
:1028D000000001400004014070B4036A026A22F45F
:1028E000803202624468426D0D4D15400A682A43E9
:1028F00023F400338D6843EA05430A4E0A4DA8428B
:1029000018BFB04204D124F480344D6944EA052450
:10291000446042654A688265036270BC704700BFCC
:102920008FFFFEFF000001400004014070B4036A05
:10293000026A22F4801202624468456D0D4A2A4000
:102940000D6842EA052223F400138D6843EA05531B
:10295000094E0A4DA84218BFB04204D124F4802485
:102960004D6944EA8524446042654A68C265036251
:1029700070BC7047FF8FFFFE000001400004014063
:102980007047000090F83D30DBB2012B3AD10223B2
:1029900080F83D300268D36843F00103D3600368D8
:1029A0001A4AB3F1804F18BF93421DD0A2F57C4262
:1029B000934219D002F58062934215D002F58062ED
:1029C000934211D002F5784293420DD002F5705235
:1029D000934209D0A2F59432934205D01A6842F08E
:1029E00001021A60002070479968094A0A40062AC5
:1029F00018BFB2F5803F07D01A6842F001021A6092
:102A000000207047012070470020704700000140FF
:102A100007000100704770477047704770B5044663
:102A20000368DE681D6915F0020F10D016F0020F62
:102A30000DD06FF002021A610123037703689B69CE
:102A400013F0030F64D0FFF7E6FF0023237715F0A0
:102A5000040F12D016F0040F0FD023686FF0040299
:102A60001A610223237723689B6913F4407F55D0B2
:102A70002046FFF7D0FF0023237715F0080F12D070
:102A800016F0080F0FD023686FF008021A610423B4
:102A900023772368DB6913F0030F46D02046FFF746
:102AA000BAFF0023237715F0100F12D016F0100F85
:102AB0000FD023686FF010021A6108232377236870
:102AC000DB6913F4407F37D02046FFF7A4FF0023D3
:102AD000237715F0010F02D016F0010F33D115F452
:102AE000025F02D016F0800F35D115F4807F02D03E
:102AF00016F0800F37D115F0400F02D016F0400FBE
:102B000039D115F0200F02D016F0200F3BD170BD47
:102B1000FFF780FF2046FFF77FFF96E72046FFF78D
:102B200079FF2046FFF778FFA5E72046FFF772FF01
:102B30002046FFF771FFB4E72046FFF76BFF204602
:102B4000FFF76AFFC3E723686FF001021A612046AE
:102B5000FDF7B0FEC3E723686FF402521A61204606
:102B600000F0CBF9C1E723686FF480721A61204648
:102B700000F0C4F9BFE723686FF040021A612046F5
:102B8000FFF74BFFBDE723686FF020021A61204674
:102B900000F0B2F9BBE7000070B403683C4A904211
:102BA00014BF00220122B0F1804F14BF144642F03E
:102BB0000104ACB9374DA84214BF00250125364E9B
:102BC000B0420DD065B905F1804505F58235A842C2
:102BD00014BF0025012506F50066B04200D01DB1E6
:102BE00023F070034D682B43002C33D1294CA042B5
:102BF00014BF00240124284DA8422BD054BB04F15B
:102C0000804404F58234A04214BF0024012405F559
:102C10000065A8421ED0ECB9204CA04214BF00248D
:102C2000012405F59A35A84214D09CB91C4CA04249
:102C300014BF0024012405F50065A8420AD04CB950
:102C4000184CA04214BF00240124A5F59635A842D3
:102C500000D01CB123F44073CC68234323F08003DD
:102C60004C6923438C68C4620C6884620E4CA04299
:102C700008BF42F001020AB10A690263026842F029
:102C80000402026001224261036070BC704700BF11
:102C900000000140000800400004004000440140E2
:102CA00000180040002000400004014060B310B54F
:102CB000044690F83D3013B3022384F83D3021469A
:102CC00051F8040BFFF768FF012384F8483084F8BB
:102CD0003E3084F83F3084F8403084F8413084F846
:102CE000423084F8433084F8443084F8453084F826
:102CF000463084F8473084F83D30002010BD80F81D
:102D00003C30FFF73DFED7E70120704760B310B5B8
:102D1000044690F83D3013B3022384F83D30214639
:102D200051F8040BFFF738FF012384F8483084F88A
:102D30003E3084F83F3084F8403084F8413084F8E5
:102D4000423084F8433084F8443084F8453084F8C5
:102D5000463084F8473084F83D30002010BD80F8BC
:102D60003C3002F0C3FBD7E70120704770B4036A20
:102D7000026A22F01002026242688569144C2C40FB
:102D80000D6844EA052523F020038C6843EA041308
:102D9000104C114EB04218BFA0420CBF01240024B9
:102DA00006D123F08003CE6843EA061323F04003E4
:102DB0003CB122F440624C6942EA84028C6942EAE6
:102DC0008402426085614A688263036270BC704716
:102DD000FF8CFFFE000001400004014090F83C30F1
:102DE000012B36D010B50446012380F83C30142A5C
:102DF0002AD8DFE802F00B292929102929291529C9
:102E000029291A2929291F29292924000068FFF7BF
:102E1000CDFC002019E00068FFF7A8FF002014E0B7
:102E20000068FFF7F7FC00200FE00068FFF72AFDBD
:102E300000200AE00068FFF74FFD002005E0006871
:102E4000FFF774FD002000E00120002384F83C30EF
:102E500010BD02207047000090F83C20012A45D0A8
:102E600070B40346012280F83C20022280F83D2005
:102E70000268506894681E4E1E4DAA4218BFB242A6
:102E800003D120F470004D68284320F070000D68D5
:102E9000284350601A681648B2F1804F18BF82422A
:102EA00017D0A0F57C40824213D000F580608242AA
:102EB0000FD000F5806082420BD000F5784082424E
:102EC00007D000F57050824203D0A0F594308242C2
:102ED00004D124F08004896821439160012283F8A1
:102EE0003D20002083F83C0070BC704702207047F2
:102EF00000000140000401407047704770470268BD
:102F000052E8003F23F4907342E800310029F6D1E3
:102F1000026802F1080353E8003F23F0010308327E
:102F200042E800310029F3D1036E012B06D02023A3
:102F3000C0F880300023036683667047026852E859
:102F4000003F23F0100342E800310029F6D1EEE7FC
:102F500010B5044683680269134342691343C2698A
:102F6000134301680868914A02401A430A602268C4
:102F7000536823F44053E1680B435360A269236A0A
:102F80001A4321688B6823F4306313438B602368F2
:102F9000874A934218D0874A93423AD0864A93424E
:102FA0004FD0864A93425ED0854A93426DD0854A7F
:102FB00093427FD0844A934200F09180834A9342A7
:102FC00000F0A28010230BE0814BD3F8903003F087
:102FD0000303032B1BD8DFE803F00216AB18012311
:102FE000E069B0F5004F00F0D780082B00F238817F
:102FF000DFE813F014012701120136012A0136011E
:10300000360136012D010423EAE70823E8E71023FF
:10301000E6E76F4BD3F8903003F00C030C2B0ED87F
:10302000DFE803F0070D0D0D090D0D0D880D0D0DD9
:103030000B000023D4E70423D2E70823D0E71023B2
:10304000CEE7634BD3F8903003F03003202B73D0DE
:1030500005D8002B72D0102B72D10423C0E7302B7F
:1030600070D10823BCE75A4BD3F8903003F0C0036B
:10307000802B69D005D8002B68D0402B68D1042361
:10308000AEE7C02B66D10823AAE7514BD3F89030A6
:1030900003F44073B3F5007F5ED006D8002B5DD0FB
:1030A000B3F5807F5CD104239AE7B3F5407F59D113
:1030B000082395E7464BD3F8903003F44063B3F50B
:1030C000006F51D006D8002B50D0B3F5806F4FD190
:1030D000042385E7B3F5406F4CD1082380E73C4BD0
:1030E000D3F8903003F44053B3F5005F44D006D8D2
:1030F000002B43D0B3F5805F42D1042370E7B3F5D2
:10310000405F3FD108236BE7314BD3F8903003F495
:103110004043B3F5004F37D005D8BBB3B3F5804F6C
:1031200036D104235CE7B3F5404F33D1082357E78A
:10313000022355E7022353E7022351E700234FE719
:1031400010234DE710234BE7022349E7002347E70D
:10315000102345E7102343E7022341E700233FE71D
:1031600010233DE710233BE7022339E7012337E72C
:10317000102335E7102333E7022331E700232FE73D
:1031800010232DE710232BE7022329E7002327E74D
:10319000102325E7102323E7082B5BD8DFE803F093
:1031A0001A343A5A375A5A5A1E0000BFF369FFEFD1
:1031B000001001400044004000480040004C004026
:1031C000005000400014014000780040007C0040A6
:1031D00000380240FEF764F900283DD062685308C9
:1031E00003EB4003B3FBF2F3A3F110014FF6EF72D0
:1031F000914233D89AB222F00F02C3F34203134331
:103200002268D360002030E0FEF75AF9E4E7FEF7C9
:1032100037F8E1E71748E1E7164802E0FEF740F922
:1032200000B3636800EB5300B0FBF3F0A0F11002B1
:103230004FF6EF739A4217D8236880B2D860002007
:1032400013E0FEF73DF9EBE7FEF71AF8E8E74FF475
:103250000040E6E7012008E0002006E0012004E04D
:10326000012002E0002000E001200023A366E366C5
:1032700010BD00BF0024F400436A13F0080F06D00D
:103280000268536823F40043416B0B435360436A65
:1032900013F0010F06D00268536823F40033816AEB
:1032A0000B435360436A13F0020F06D00268536861
:1032B00023F48033C16A0B435360436A13F0040F55
:1032C00006D00268536823F48023016B0B435360DC
:1032D000436A13F0100F06D00268936823F48053FA
:1032E000816B0B439360436A13F0200F06D0026892
:1032F000936823F40053C16B0B439360436A13F04C
:10330000400F0AD00268536823F48013016C0B430A
:103310005360036CB3F5801F0BD0436A13F0800F2A
:1033200006D00268536823F40023816C0B4353607A
:1033300070470268536823F4C003416C0B43536029
:10334000EBE72DE9F84305460E4617469946DDF8AA
:1033500020802B68DC6936EA04040CBF01240024B9
:10336000BC423AD1B8F1FF3FF3D0FEF765FEA0EBC7
:103370000900404534D8B8F1000F33D02B681A68E3
:1033800012F0040FE5D0B6F1400218BF0122802EE2
:10339000DFD0002ADDD0DA6912F0080F11D1DA6926
:1033A00012F4006FD5D04FF400621A622846FFF77E
:1033B000A6FD2023C5F88430002385F8783003204B
:1033C0000CE008241C622846FFF799FDC5F88440EC
:1033D000002385F87830012000E00020BDE8F88364
:1033E0000320FBE70320F9E730B583B00446002350
:1033F000C0F88430FEF720FE05462268126812F0FD
:10340000080F0FD123681B6813F0040F26D1202367
:10341000E367C4F8803000202066606684F8780096
:1034200003B030BD6FF07E430093034600224FF49B
:1034300000112046FFF785FF0028E3D0226852E8FC
:10344000003F23F0800342E800310029F6D1202319
:10345000E367002384F878300320E1E76FF07E43D0
:1034600000932B4600224FF480012046FFF769FFAE
:103470000028CCD0226852E8003F23F4907342E841
:1034800000310029F6D1226802F1080353E8003F19
:1034900023F00103083242E800310029F3D1202350
:1034A000C4F88030002384F878300320B8E768B38C
:1034B00010B50446C36F03B32423E367226813687F
:1034C00023F001031360636AE3B92046FFF740FD70
:1034D000012811D02268536823F490435360226876
:1034E000936823F02A0393602268136843F0010372
:1034F00013602046FFF778FF10BD80F8783002F0A7
:1035000099F8D9E72046FFF7B7FEDEE701207047BC
:10351000002842D030B583B00446056890F8D53312
:10352000BBB1032384F8D533B5F1A04F16D0206882
:1035300000F0A4F8237C8DF80030231D0ECB20680A
:1035400000F05AF868B1022384F8D533012003B0A3
:1035500030BD80F8D43302F0CDF8E2E70023A37148
:10356000E5E70121206800F0DBF820B1022384F8B0
:10357000D5330120EBE7237C8DF80030231D0ECBE3
:10358000206800F0FFF818B9012384F8D533DEE78E
:10359000022384F8D5330120D9E70120704782B097
:1035A00000230193019B01330193019BB3F1706FE1
:1035B0001CD80369002BF5DA0A23019302E0019B72
:1035C000013B0193019B002BF9D1036943F00103F7
:1035D0000361019B01330193019BB3F1706F08D824
:1035E000036913F0010FF4D1002000E0032002B0C2
:1035F00070470320FBE7000084B010B5044603A821
:1036000080E80E009DF81130012B1FD1A36B23F42D
:103610008033A363E268184B1340E360E36823F44C
:103620004013E3609DF81830012B0AD02046FFF7C5
:10363000B6FF9DF80E30012B14D0BDE8104004B049
:103640007047E36843F48013E360EFE7E36843F017
:103650004003E3602046FFF7A2FFA36B43F48033EF
:10366000A363E6E7A36843F00603A360A36843F0FF
:103670002003A360E1E700BFBFFFBDFF836823F025
:10368000010383600020704782B000230193019BF7
:1036900001330193019BB3F1706F15D80369002BBF
:1036A000F5DA00230193890141F020010161019BBA
:1036B00001330193019BB3F1706F08D8036913F0D4
:1036C000200FF4D1002000E0032002B07047032057
:1036D000FBE782B000230193019B01330193019B1F
:1036E000B3F1706F13D80369002BF5DA002301934F
:1036F00010230361019B01330193019BB3F1706FB0
:1037000008D8036913F0100FF4D1002000E0032063
:1037100002B070470320FBE7406900F001007047EA
:1037200038B50546C36823F0C043C360012913D0F0
:1037300019BBC36843F08043C36000240A20FEF72E
:1037400081FC0A342846FFF7E7FF08B1C72CF5D9FA
:10375000C82C14D0002038BDC36843F00053C360A8
:1037600000240A20FEF76EFC0A342846FFF7D4FF37
:103770000128EDD0C72CF4D9EAE70120EBE70120BE
:10378000E9E7000084B038B5044605A880E80E00DB
:103790000023C4F8003EA36B23F40013A363E36883
:1037A00013F0400F11D19DF81730012B06D0D4F83B
:1037B000003423F00403C4F800340CE0D4F80034DF
:1037C00043F00403C4F8003405E0D4F8003423F0D7
:1037D0000403C4F8003410212046FFF755FF0546C6
:1037E00000B101252046FFF774FF00B1012500223A
:1037F00009E004EB42134FF0FF31C3F80815002134
:10380000C3F80C1501329DF815309342F1D800230E
:10381000A3614FF0FF336361124B9C4217D08023AA
:10382000636203F5C003A3620F4BC4F800319DF837
:1038300016301BB9A36943F01003A361A2690B4BB7
:103840001343A3612846BDE8384004B070474FF4E5
:103850000073636203F18073A362054BC4F8003107
:10386000E5E700BF00000440E0004000080020A39E
:103870000003E000034AD2F8883043F47003C2F832
:103880008830704700ED00E00020704708B500F078
:10389000DFF808BD30B589B00446214B1A6C42F000
:1038A00010021A641B6C03F010030193019B02A920
:1038B00003A8FDF715FE069BCBB9FDF7F1FD034606
:1038C000184AA2FB03239B0C013B1748174A0260CE
:1038D00040F2E732C260436000230361836083618A
:1038E000FFF7E4F9054630B1284609B030BDFDF7D1
:1038F000D7FD4300E4E70C48FFF744F805460028ED
:10390000F2D13620FEF772FB0F2C01D90125EBE72F
:10391000002221463620FEF759FB054B1C60E3E7E9
:103920000038024083DE1B433000002000100040BE
:103930000400002000B583B0342300934FF480636B
:103940001B4A1C491C4800F097FD00B33423009328
:103950004FF48063194A1A491A4800F08DFDD0B11E
:10396000342300934FF48063174A1849184800F035
:1039700083FDA0B1342300934FF48063154A1349AB
:10398000154800F079FD70B103B05DF804FB0A48FA
:10399000FFF77AFFDAE70B4801F00AFFE0E70C488F
:1039A00001F004FFE6E70C4801F0FEFEECE700BF83
:1039B0004C0D002038580008180D00201809002070
:1039C0004C580008E4080020E40400206058000877
:1039D000B0040020B00000207C00002008B500F0FA
:1039E00003FF00F003FA00F0C3FD00230C4A13604C
:1039F0000C4A13600C4A13600C4A13600C4A1360A3
:103A00000C4A13600C4A13600C4A13600C4A136092
:103A10000C4A13600C4A13600C4A136008BD00BFC7
:103A20007C110020781100207411002070110020FA
:103A30006C110020681100205C110020581100203A
:103A4000541100205011002064110020601100204A
:103A500010B50F4B1B6813F10F3F0CD10C4C4FF0FE
:103A6000F03323600B4B1868FFF764FF00232360DB
:103A7000FCF74EFC10BD064B4FF0F0321A60FCF71D
:103A800007FCFFF7ABFF044A136801331360E5E757
:103A90000C0000204C110020881100202DE9F0417D
:103AA00084B004460F4615461E4634220021FCF71A
:103AB00037FD26F003066760A561E6612561656153
:103AC000A6F10803A3600223E3600395AA190392F9
:103AD000131F039342F8044C083A039243F8045C22
:103AE000039B2B6003952B1D0393374B6B600023C7
:103AF0002362EFF3108872B6344B2360344B1B689B
:103B0000002B42D1334A1460E46224630133304A0B
:103B100013600023009333463A462146082000F004
:103B20007DFE2D4B1B68002B47D02C4A126812F0EB
:103B3000040F42D0EFF30580294A12682949096829
:103B400002432AD1CA6AC86B42EA004242F00042EC
:103B500019605A6015229A60234A5268DA601C6123
:103B60005D619E6103AADA612033204A12689A429D
:103B70001ED81F4B1B68184A13601E4A1068036248
:103B80001D4B1B68CBB1984717E0124A1268116BA6
:103B90001463CC622163E262B8E7B2F1F03F03D272
:103BA0000A464FF0FF31D3E74FF0F0310022CFE764
:103BB000094A13600F4A1268136288F310880020C4
:103BC00004B0BDE8F08100BFEEEEFFFF455459425E
:103BD0005011002054110020A01700209C17002035
:103BE0000C00002020120020001000E0A41700208C
:103BF000A8170020B4170020981700202DE9F04FD7
:103C000083B004468846924699460C9E0D9D0E9FB1
:103C1000DDF840B02A46EF213046FCF781FCB022A7
:103C200000212046FCF77CFCC4F82880C4F844A09E
:103C3000C4F84890E6606561E762C4F89470C4F81F
:103C400018B0C4F81CB02023C4F89C306B1E334459
:103C500023610F9B9F4254D003232363534B63651F
:103C6000A46553492046FCF713FCEFF3108972B6A4
:103C7000504B2360504B1B68002B46D14F4A1460B9
:103C8000C4F88840C4F88C4001334B4A1360009557
:103C9000334642462146012000F0C0FD484B1B68D8
:103CA000002B4FD0474A126812F4807F4AD0EFF3BE
:103CB0000580454A126845490968024332D1CA6AFB
:103CC000C86B42EA004242F0004219605A60642226
:103CD0009A603F4A5268DA601C615F619E61DD61F3
:103CE00020333C4A12689A4227D83B4B1B68344A1F
:103CF00013603A4A10680362394B1B6813B3984744
:103D000020E0E763C4F89870A6E72C4A1268D2F85E
:103D10008C10C2F88C40C1F88840C4F88C10C4F8EC
:103D20008820B1E7B2F1F03F03D20A464FF0FF31ED
:103D3000CBE74FF0F0310022C7E7214A1360274A52
:103D400012681362274A136801331360119B012B19
:103D50001AD1EFF305821C4B1B681343B3F1F03FFC
:103D600006D3214B1D686DB1EE6BEB6AEB6301E08E
:103D70000026354689F31088204600F0B3F885B157
:103D8000EE630EE00026F5E789F31088EFF310816B
:103D900072B6144A1368013B136081F3108800F077
:103DA00083F8002003B0BDE8F08F00BF4544000851
:103DB000553E0008445248541412002018120020A6
:103DC000A01700209C1700200C00002020120020CB
:103DD000001000E0A4170020A8170020B41700204E
:103DE00098170020881100201C12002010B5002414
:103DF0000D4B1C600D4B1C600D4B1C600D4B2022AD
:103E00001A60802221460C48FCF78AFB0B4B1C6091
:103E10000B4B1C600B4B1C600B4B1C600B4A11685E
:103E20000B4B0B43136010BD201200201C1200200E
:103E3000101200200C1200208C11002018120020FB
:103E4000141200208811002084110020801100200D
:103E500000010A0110B5114B1C68636CA06C9847F7
:103E60000F4B1B680BB120469847EFF3108172B6D9
:103E700001232363A3630023E3640A4A1368013325
:103E8000136081F31088EFF3148323F0040383F3AA
:103E90001488204600F024F910BD00BF2012002035
:103EA00084110020881100200B4B1B689BB90B4B21
:103EB0001A680B4B1B689A420DD04FF0E0234FF06D
:103EC0008052C3F8042DEFF3058323B9EFF3108379
:103ED00062B683F3108870478811002020120020FA
:103EE0001C120020F0B583B00446EFF3108672B6C2
:103EF000436E002B3AD04C3000F0CEFB6A4B1D686D
:103F0000002D46D0694B1B6813F0010F41D0EFF331
:103F10000581674B1B68674A12680B4329D1D36A36
:103F2000D16B43EA014343F000432A606B600123F5
:103F3000AB60614B5B68EB602C61236B6B6101AB29
:103F4000AB615E4B1B68EB6105F120035C4A1268B4
:103F50009A4219D85B4B1B68534A13605A4A10683F
:103F600003625A4B1B68A3B1984712E00023C36455
:103F7000C4E7B3F1F03F03D213464FF0FF32D4E76A
:103F80004FF0F0320023D0E7474A13604E4A1268E0
:103F90001362CDB1E9684E4A1368013B1360A36B0D
:103FA000002B6ED1236B002B4CD0636B002B45D1C3
:103FB0002363E26A474B53F822303BB15A6A1462DA
:103FC0005C62626223623DE00021E4E7414B43F81A
:103FD000224024626462012090403F4F3B680343CB
:103FE0003B603E4B1B6893422CD93C4B1A60334BD1
:103FF0001B680193EBB1DB6B934223D92F4B1C6001
:1040000015B1EB688B4217D086F31088304B1B68D4
:10401000002B34D14FF0E0234FF08052C3F8042D31
:10402000EFF305835BBBEFF3108362B683F3108875
:1040300025E0224B1C6005E0EC61E5E700236363AB
:104040000323236315B1EB688B4229D0194B1B68FE
:1040500086F31088194A12689A4210D01C4B1B68CC
:104060006BB94FF0E0234FF08052C3F8042DEFF30B
:10407000058323B9EFF3108362B683F3108803B08E
:10408000F0BD236B012BDDD0022BDBD0636B13B9AA
:10409000A3632363D6E70023636303232363D1E78A
:1040A000064B1B68EB61D1E7A01700209C1700208E
:1040B0000C00002020120020001000E01C12002044
:1040C000A4170020A8170020B4170020981700207C
:1040D000881100208C110020101200200C120020EA
:1040E000F0B583B004467E4B1E68EFF3108772B6BE
:1040F00086421FD07B4A1368013B1360A36B012BE0
:1041000025D087F31088784B1B68B34210D0754BCD
:104110001B686BB94FF0E0234FF08052C3F8042DB9
:10412000EFF3058323B9EFF3108362B683F31088AE
:1041300003B0F0BDC36C13B1B3F1FF3F03D1E2692B
:104140006A4B1A60D6E74C3000F07AFAF7E7684B12
:104150001D68002D43D0674B1B6813F0010F3ED044
:10416000EFF30581644B1B685D4A12680B4326D14F
:10417000D36AD16B43EA014343F000432A606B608A
:104180000223AB605D4B5B68EB602C61236B6B6162
:1041900001ABAB61544B1B68EB6105F12003584A3E
:1041A00012689A4216D8574B1B68514A1360564AF8
:1041B00010680362554B1B688BB198470FE0B3F151
:1041C000F03F03D213464FF0FF32D7E74FF0F03203
:1041D0000023D3E7464A13604B4A12681362E5B1E5
:1041E000E8680023A363E26A0192236A9C421AD022
:1041F000616A59620B62464951F82210A1420ED001
:10420000394B1B68A34246D0002D3FF47AAFEA68D1
:1042100082427FF476AFEB6173E70020E1E73C492F
:1042200041F82230ECE73A4B002143F822100123F9
:1042300003FA02F237490B6823EA02030B6033B139
:1042400093FAA3F3B3FA83F3334A1360D8E7324BFC
:1042500020221A60244B00221A6015B1EB688342B9
:1042600017D087F310881F4B1B68002B7FF460AFBB
:104270004FF0E0234FF08052C3F8042DEFF3058395
:10428000002B7FF455AFEFF3108362B683F31088F1
:104290004EE7EA61E5E7204B1A681D4B53F82230E0
:1042A000114A136015B1EA68824217D087F310886B
:1042B0000C4B1B68002B7FF43BAF4FF0E0234FF01B
:1042C0008052C3F8042DEFF30583002B7FF430AF49
:1042D000EFF3108362B683F3108829E7EB61E5E71B
:1042E00020120020881100201C120020281200201B
:1042F000A01700209C1700200C000020001000E0F8
:10430000A4170020A8170020B41700209817002039
:104310008C110020101200200C12002070B582B009
:10432000394B1B680193EFF3108472B6374B0022B0
:104330001A60019B63B11A6B52B9DA699A61344908
:104340000A601A6A934203D0D96ADB6B99423DD066
:10435000EFF305832F4A12681A432F4B18682F4B2F
:104360001B68002B4CD02E49096811F0010F47D073
:10437000EFF3058C27490968234D2D6851EA0C019C
:104380002ED1E96AEE6B41EA064141F000411D6021
:1043900059600521996023494968D9602249096813
:1043A00019615A61986101AADA6120331F4A1268C3
:1043B0009A4220D81E4B1B68184A13601D4A106889
:1043C00003621D4B1B68DBB1984719E01B4B43F898
:1043D00021201B4A126853F82220134B1A60B7E7BA
:1043E000B1F1F03F03D229464FF0FF35CFE74FF050
:1043F000F0350021CBE7094A13600E4A12681362B8
:1044000084F3108802B070BD2012002084170020B1
:10441000281200200C00002088110020A017002086
:104420009C170020001000E01C120020A4170020A0
:10443000A8170020B4170020981700208C11002026
:104440000C12002008B5EFF3108272B6036B042B38
:1044500007D0836ED0F8AC1082F3108803B1984770
:1044600008BD04490B6801330B6082F31088FFF725
:1044700039FDF5E788110020002850D02DE9F843D8
:104480008946174698460646089B342B02D00220E0
:10449000BDE8F883EFF3108172B6264A1368013342
:1044A000136081F31088244B1C680020234D2D6875
:1044B000854204D9B44202D0E46A0130F6E7EFF352
:1044C000108172B61B4A1368013B136081F3108898
:1044D000FFF7EAFCB44224D02FB3B8F1630F24D91C
:1044E000174B1A68174B9A4217D00020EFF305823A
:1044F000154B1B68134307D0EFF30582124B1B6863
:104500001343B3F1F03F12D30028C1D143463A46DA
:1045100049463046FFF7C2FABAE71320E6E7022021
:1045200070470220B4E70320B2E70520B0E713206C
:10453000AEE700BF88110020541100205011002068
:1045400020120020381600200C00002008B5EFF3E0
:10455000108172B6044A13680133136081F3108826
:104560000248FFF7BFFC08BD881100203816002064
:1045700030B587B000241F4B1C601F4B1C601F4BC5
:104580001C601F4B1C601F4B1C601F4D802221466E
:104590002846FBF7C5FF1D4B1D601D4B1D601D4BC5
:1045A00005F17C021A6080351D601B4B1B4A1A60A6
:1045B0001B4B4FF480621A601A4B1C60194B1B682E
:1045C00000220592049203930293154B1B680193FA
:1045D000114B1B680093144B144A15491548FFF7FB
:1045E0000DFB0028EAD10023134A1360134A13601D
:1045F00007B030BD88170020281200208417002043
:10460000F4160020E81600200417002000170020F0
:10461000F8160020FC160020341600202C12002072
:10462000301600202C1600204D495441C946000880
:104630007458000838160020F0160020EC160020F0
:10464000036823B1B3F1FF3F01D0826902B1704723
:10465000202B15D8013B0D4A126802EB83030C4A4C
:1046600012689A4203D89B1A0A4A126813441A68BD
:1046700042B1516908615061026141618361E6E7BD
:104680001F23E8E7006140611860F7E7F816002093
:10469000FC16002000170020836953B10269904284
:1046A00008D0416951610A611968814208D000232C
:1046B000836170471A688242F9D100221A60F6E7D6
:1046C00093611A60F3E700003F4B984200D07047B7
:1046D00070B582B0002556E03C4B1A683C4B1A601E
:1046E00065E001912BE0A368E5686168216000291D
:1046F00030D0C4F818D02461009436490C6082F39D
:1047000010880BB128469847EFF3108672B6314BEC
:1047100000221A60009BA3421FD086F31088EFF39B
:10472000108272B6019CECB12369002100919C4279
:10473000D7D0616959610B6101A99961019323681F
:10474000202BD0D9203B2360C4F818D024610094DA
:104750000023D2E70021A161CFE7A2612046FFF745
:104760006FFFDAE71C4B1B68002B29D11B48032382
:104770000363012383631A490B6801330B6082F3DF
:104780001088FFF7ADFCEFF3108172B6104B1A687A
:10479000136801930BB101A89861002313600C4AC0
:1047A0001368043313600F4A1268934294D00A4B83
:1047B00000221A6081F31088EFF3108272B6B1E71D
:1047C00082F31088DFE700BF4D49544100170020F5
:1047D000F8160020E8160020F416002038160020F5
:1047E00088110020FC1600200023064A1360064AA8
:1047F0001360064A1360064A1360064A1360064AAD
:1048000013607047B4170020B0170020AC170020C9
:10481000A8170020A4170020A01700202DE9F04FB2
:104820003F4C2468002C6ED09B463E4D2F683E4D79
:10483000D5F800A0BAF1000F65D03C4DD5F8009036
:10484000B846CC4600250DE0B84507D008EB480631
:1048500004EB06167678B6B1E04614E0E04612E0C6
:10486000CC4516D00CEB4C0E4FEA0E1604EB0E1E88
:10487000DEF804300BB9E04601258B420CD055B967
:10488000A65D012EE0D00CF1010C6745E8D8AC46DE
:10489000E6E7C44600E0C446BC4534D20AF1FF3521
:1048A000214E35600CF10105BD421ED21F4E356010
:1048B0000CEB4C0C4FEA0C1504EB0C1C4FF0000EEB
:1048C00004F805E08CF80100CCF80410CCF808B02E
:1048D000099BCCF80C3073461E2B0AD8D45C0CEB29
:1048E00003052C742CB10133F6E7104D00262E6021
:1048F000DEE7634400221A74012806D000238CF8F6
:1049000002308CF80330BDE8F08F91F82D3063F061
:104910007F038CF8023091F82C308CF80330F2E7EA
:10492000B017002094170020901700208C1700204B
:104930002DE9F04F8DB000240794089409940A944F
:104940000B946F4B1A6B42F010021A631A6B02F051
:1049500010020192019A1A6B42F004021A631A6B58
:1049600002F004020292029A1A6B42F080021A6369
:104970001A6B02F080020392039A1A6B42F0010252
:104980001A631A6B02F001020492049A1A6B42F045
:1049900002021A631A6B02F002020592059A1A6B60
:1049A00042F008021A631B6B03F008030693069B90
:1049B000544F22464FF440413846FDF77FFA524E9D
:1049C00022464FF490613046FDF778FA224642F2D3
:1049D00003014E48FDF772FADFF834A122464FF486
:1049E00000415046FDF76AFA4FF4404307934FF0F9
:1049F0000108CDF8208009940A9407A93846FDF7EC
:104A00005BF90D2307930225089509944FF00309DC
:104A1000CDF828904FF00A0BCDF82CB007A93846F6
:104A2000FDF74AF92823079308950994CDF82890B3
:104A3000CDF82CB007A93046FDF73EF94FF490634E
:104A40000793CDF8208009940A9407A93046FDF712
:104A500033F943F62343079308950994CDF828903A
:104A6000CDF82CB0DFF8ACB007A95846FDF724F913
:104A700042F203030793CDF8208009940A9407A912
:104A80002248FDF719F94FF440430793089509941C
:104A9000CDF828900C230B9307A95846FDF70CF985
:104AA0004FF400430793CDF8208009940A9407A996
:104AB0005046FDF701F94FF40073079308950994E8
:104AC0000A9405230B9307A93846FDF7F5F84FF430
:104AD00080730793089509940A940B9407A93046AC
:104AE000FDF7EAF8422307934FF4881308930994DB
:104AF00007A95046FDF7E0F80DB0BDE8F08F00BF04
:104B0000003802400008024000000240001002404D
:104B1000000C02400004024000B585B00023009361
:104B20000193029303931548154A02604FF48032B3
:104B3000426083600361836180F82030C362114A60
:104B40008262C3600122C26180F830304261FCF7AA
:104B500007F868B90C4B00930123019300230293DB
:104B600069460648FCF728F828B905B05DF804FB4B
:104B7000FBF7ACFEEEE7FBF7A9FEF6E70018002016
:104B8000002001400100000F1200001000B585B0A8
:104B9000002300930193029303931648164A026080
:104BA0004FF480324260836001220261836180F8A9
:104BB000202042624FF08051C1628362C360C261B3
:104BC00080F830304361FBF7CBFF68B90E230093C8
:104BD000012301930023029369460648FBF7ECFF8B
:104BE00028B905B05DF804FBFBF770FEEEE7FBF7B4
:104BF0006DFEF6E7B81700200021014010B58AB01D
:104C00000023059306930793089309930368294AA1
:104C1000934204D0284A93421DD00AB010BD274BBE
:104C20005A6C42F480725A645A6C02F48072009298
:104C3000009A1A6B42F004021A631B6B03F0040320
:104C40000193019B202305930323069305A91C4888
:104C5000FDF732F8E1E7194B5A6C42F400725A64DE
:104C60005A6C02F400720292029A1A6B42F001022C
:104C70001A631A6B02F001020392039A1A6B42F054
:104C800004021A631B6B03F004030493049B572371
:104C900005930324069405A90A48FDF70DF810238F
:104CA000059306940023079305A90548FDF704F82A
:104CB000B3E700BF0020014000210140003802405E
:104CC000000802400000024008B51448144B03607D
:104CD000A3F1FE53A3F698434360002383600122AF
:104CE000C260036143618361C3610362FDF7BEF982
:104CF00050B900210948FDF71DFA40B900210748C5
:104D0000FDF746FA30B908BDFBF7E0FDF1E7FBF728
:104D1000DDFDF3E7FBF7DAFDF5E700BF9C180020A7
:104D20000054004008B51248124B0360124B436018
:104D3000002383600122C260036143618361C36118
:104D40000362FDF793F950B900210948FDF7F2F924
:104D500040B900210648FDF71BFA30B908BDFBF742
:104D6000B5FDF1E7FBF7B2FDF3E7FBF7AFFDF5E7C4
:104D700048180020006000406847402010B5AEB0E1
:104D80000446002129912A912B912C912D9190225A
:104D900005A8FBF7C5FB2368304A934204D0304A8C
:104DA00093422ED02EB010BD4FF48043059305A83A
:104DB000FCF7B4FB10BB2B4C236B43F002032363C3
:104DC000236B03F002030193019B4FF4407329937B
:104DD00012232A9300232B9303232C9304232D9334
:104DE00029A92148FCF768FF236C43F400132364CE
:104DF000236C03F400130293029BD3E7FBF766FDD9
:104E0000D9E74FF40033059305A8FCF787FB08BBEF
:104E1000144C236B43F002032363236B03F0020360
:104E20000393039BC023299312232A9300232B93DC
:104E300003232C930B232D9329A90B48FCF73CFF4C
:104E4000236C43F080732364236C03F0807304931A
:104E5000049BA7E7FBF73AFDDAE700BF00540040E8
:104E600000600040003802400004024008B50A48D3
:104E70000A4B0360002343608360C36003614FF407
:104E8000FA52426183610123C361FDF7E1F900B980
:104E900008BDFBF71BFDFBE7301900200038004080
:104EA00008B50A480A4B0360002343608360C3606F
:104EB00003614FF4FA52426183610123C361FDF73C
:104EC000C7F900B908BDFBF701FDFBE7F0180020AA
:104ED000003C004070B5B0B0044600212B912C91ED
:104EE0002D912E912F91902207A8FBF719FB236893
:104EF0004D4A934204D04D4A934253D030B070BDD6
:104F00004FF40003149307A8FCF708FB002846D1D0
:104F1000474B1A6C42F480421A641A6C02F48042C5
:104F20000092009A1A6B42F004021A631A6B02F0A4
:104F300004020192019A1A6B42F008021A631A6B7A
:104F400002F008020292029A1A6B42F002021A63FD
:104F50001B6B03F002030393039B02252B952C95F7
:104F600000242D942E9405262F962BA93148FCF76A
:104F7000A3FE08232B932C952D942E942F962BA9CA
:104F80002D48FCF799FE10232B932C952D942E94ED
:104F900007232F932BA92948FCF78EFEAEE7FBF7DA
:104FA00095FCB5E74FF40003149307A8FCF7B6FA95
:104FB000002835D11E4B1A6C42F400421A641A6C58
:104FC00002F400420492049A1A6B42F001021A633E
:104FD0001A6B02F001020592059A1A6B42F0040264
:104FE0001A631B6B03F004030693069B4FF4004304
:104FF0002B9302262C9600242D942E9406252F9573
:105000002BA90F48FCF758FE4FF4A0532B932C9676
:105010002D942E942F952BA90648FCF74DFE6DE795
:10502000FBF754FCC6E700BF00380040003C0040DE
:105030000038024000080240000C02400004024018
:105040000000024008B50A480A4B03600023436091
:1050500001228260C3600261436183618022C26178
:105060000362FDF7B3F900B908BDFBF72FFCFBE7BE
:1050700070190020001000A0F0B58BB0002305933C
:1050800006930793089309930268274B9A4201D02D
:105090000BB0F0BD254B9A6B42F002029A639A6BFB
:1050A00002F002020192019A1A6B42F002021A63A4
:1050B0001A6B02F002020292029A1A6B42F010027C
:1050C0001A631A6B02F010020392039A1A6B42F0F1
:1050D00004021A631B6B03F004030493049B042370
:1050E000059302250695032408940926099605A927
:1050F0000F48FCF7E1FD4FF4F06305930695002798
:10510000079708940A23099305A90A48FCF7D4FDD8
:105110004FF400630593069507970894099605A92F
:105120000548FCF7C9FDB3E7001000A000380240B5
:1051300000040240001002400008024008B5244864
:10514000244B03600023036301224260402141633A
:105150008363C36383600361436183614BF6803182
:10516000C161C36043628362082101644264836455
:10517000C364036543658365C2650366FDF7A0F9F3
:1051800000BB1548154B03600023036303224260F4
:10519000402242638363C3630122826003618361AF
:1051A000C36043628362C362082101644264836412
:1051B000C364036543658365C2650366FDF780F9D3
:1051C00018B908BDFBF782FBDBE7FBF77FFBF8E7CD
:1051D000501B002004580140CC1A002024580140E4
:1051E00008B52248224B0360002303630322426078
:1051F000402242638363C36301228260036183614F
:1052000043628362C3620821016442648364C364AD
:10521000036543658365C2650366FDF751F9F8B917
:105220001448154B036000230363032242604022AD
:1052300042638363C36301228260036183614362CB
:105240008362C3620821016442648364C3640365AA
:1052500043658365C2650366FDF732F918B908BD79
:10526000FBF734FBDCE7FBF731FBF8E7481A0020DB
:10527000045C0140C4190020245C014010B5AEB0AC
:1052800004469022002105A8FBF74AF92268604BEA
:105290009A420ED022685F4B9A4235D022685E4B0C
:1052A0009A425CD022685D4B9A4200F084802EB016
:1052B00010BD4FF4002305934FF40013149305A879
:1052C000FCF72CF9E8B9564B1B684BB9554A516CA1
:1052D00041F480015164526C02F480020192019AFF
:1052E00001334F4A13607423299302232A93002326
:1052F0002B932C9306232D9329A94B48FCF7DCFC18
:10530000C8E7FBF7E3FADEE74FF4002305934FF419
:105310000013149305A8FCF701F9E8B9404B1B688A
:105320004BB9404A516C41F480015164526C02F413
:1053300080020292029A0133394A136008232993AA
:1053400002232A9300232B932C9306232D9329A920
:105350003548FCF7B1FCA1E7FBF7B8FADEE74FF4FC
:10536000801305934FF40003159305A8FCF7D6F8B6
:10537000F0B92E4B1B684BB92A4A516C41F400011D
:105380005164526C02F400020392039A0133274ADB
:1053900013604FF40063299302232A9300232B9375
:1053A0002C930A232D9329A92148FCF785FC79E742
:1053B000FBF78CFADDE74FF4801305934FF40003FD
:1053C000159305A8FCF7AAF8F0B9184B1B684BB960
:1053D000144A516C41F400015164526C02F4000211
:1053E0000492049A0133114A13604FF40063299325
:1053F00002232A9300232B932C930A232D9329A96C
:105400000948FCF759FC52E7FBF760FADDE700BFFB
:105410000458014024580140045C0140245C0140D0
:10542000C01900200038024000100240BC190020C2
:10543000000C024008B51048104B03604FF4827313
:105440004360002383604FF44072C2600361436194
:105450004FF400728261C361036243628362072278
:10546000C262036308234363FDF72CF900B908BD4A
:10547000FBF72CFAFBE700BFD41B002000340140EF
:1054800000B589B000230393049305930693079313
:105490000268144B9A4202D009B05DF804FB03F590
:1054A00082335A6C42F400525A645A6C02F400522D
:1054B0000192019A1A6B42F010021A631B6B03F0FF
:1054C00010030293029B4FF4A0430393022304931F
:1054D000032306930523079303A90348FCF7ECFB7A
:1054E000DAE700BF00340140001002400268094BB7
:1054F0009A4200D0704782B003F50C331A6C42F028
:1055000004021A641B6C03F004030193019B02B0B4
:10551000704700BF0008004000B587B0002301932A
:10552000029303930493059302680E4B9A4202D0B0
:1055300007B05DF804FB03F50C331A6B42F0080268
:105540001A631B6B03F008030093009B4FF4405356
:10555000019302230293059301A90348FCF7ACFBD6
:10556000E6E700BF00080040000C024000B58BB029
:1055700000230793089309930093019302930393E5
:105580000493059306931B481B4A026043608360A3
:105590004FF6FF72C26003618361FDF7B7FBE8B9A4
:1055A00000230793099307A91248FDF755FCC0B9DA
:1055B0000022009201920292049269460D48FDF782
:1055C0000DFC88B9042269460A48FDF707FC70B94A
:1055D0000848FFF7A1FF0BB05DF804FBFBF776F975
:1055E000DEE7FBF773F9E3E7FBF770F9EAE7FBF7B0
:1055F0006DF9EDE7381C00200008004008B50B48A5
:105600000B4B03604FF4E133436000238360C360BE
:1056100003610C2242618361C36103624362FDF74F
:1056200046FF00B908BDFBF751F9FBE7841C0020D9
:105630000048004010B5ACB00446002127912891E5
:1056400029912A912B91902203A8FAF769FF2268E9
:10565000184B9A4201D02CB010BD4FF480730393C5
:1056600003A8FBF75BFF10BB134B1A6C42F48022BC
:105670001A641A6C02F480220192019A1A6B42F0A9
:1056800008021A631B6B03F008030293029B4FF49A
:1056900040732793022328930023299303232A93FB
:1056A00007232B9327A90548FCF706FBD3E7FBF755
:1056B0000DF9D9E70048004000380240000C0240D4
:1056C00008B50A484FF0A043036008234371012343
:1056D000C37100238371022242728372FDF718FFA7
:1056E00000B908BDFBF7F2F8FBE700BF0C1D002076
:1056F0007047000010B5ACB00446002127912891F6
:1057000029912A912B91902203A8FAF709FF236887
:10571000B3F1A04F01D02CB010BD4FF40013039390
:105720006023089302230A930423099301230B9314
:105730000D934FF00063229303A8FBF7EFFE0028C0
:105740002BD1174C236B43F001032363236B03F02E
:1057500001030093009B4FF4C05327930223289327
:105760000023299303232A930A232B9327A90D4867
:10577000FCF7A2FA636B43F080036363636B03F08F
:1057800080030193019B636C43F480436364636C07
:1057900003F480430293029BBDE7FBF797F8D0E741
:1057A000003802400000024000207047002070478F
:1057B00000207047DFF834D0FEF75CF80C480D4944
:1057C0000D4A002302E0D458C4500433C4188C425C
:1057D000F9D30A4A0A4C002301E013600432A242C2
:1057E000FBD3FAF775FEFBF7D5F8704700000820E9
:1057F0000000002010000020985800081000002031
:10580000EC200020FEE70000F8B500BFF8BC08BCA3
:105810009E467047F8B500BFF8BC08BC9E4670476E
:10582000000000000102030400000000000000006E
:105830000102030406070809547820417070206DA6
:10584000656D6F727920706F6F6C00004678204133
:105850007070206D656D6F727920706F6F6C0000D5
:10586000557820417070206D656D6F727920706F72
:105870006F6C000053797374656D2054696D6572A7
:085880002054687265616400A8
:085888006CADFF7F0100000080
:0458900069020008A1
:0458940041020008C5
:1058980001000000100000000024F400F0F0F0F017
:04000005080057B5E3
:00000001FF
